:1000000043C1000071C100006FC100006DC100005C
:100010006BC1000069C1000067C1000065C100003C
:1000200063C1000061C100005FC100005DC100004C
:100030005BC1000059C1000057C1000055C100005C
:1000400053C1000051C100004FC100004DC100006C
:10005000E9C7000049C1000047C100003AC70000DD
:1000600043C10000A9C700007EC700003DC10000D9
:100070003BC1000039C1000037C1000035C100009C
:1000800033C1000031C100002FC100002DC10000AC
:100090002BC1000029C1000027C1000025C10000BC
:1000A00023C1000021C100001FC100001DC10000CC
:1000B0001BC1000019C1000017C1000015C10000DC
:1000C00013C1000011C100000FC100000DC10000EC
:1000D0000BC1000009C1000007C1000005C10000FC
:1000E00003C1000007634236B79BD8A71A39685688
:1000F00018AEBAAB558C1D3CB7CC5763BD6DEDFD4A
:10010000753EF6177231BF000000803F0800000006
:10011000BE922449123EABAAAA2ABECDCCCC4C3EFC
:1001200000000080BEABAAAAAA3E00000000BF00EB
:100130000000803F0000000000084178D3BB4387E7
:10014000D1133D190E3CC3BD4282AD2B3E68EC82FB
:1001500076BED98FE1A93E4C80EFFFBE01C4FF7F80
:100160003F000000000000002100240027002A00BA
:100170002D003000330001010000040107010A01D5
:1001800000002200250028002B002E003100340042
:1001900002010000050108010B01000020002300FE
:1001A000260029002C002F0032000001000003016E
:1001B00006010901050505050705080808080202EA
:1001C00002020A0A080804040404010101010101F1
:1001D00001010303030303030303040707070C0CD4
:1001E0000C0C0C0C0C0C020202020606060606069B
:1001F00006060B0B0B0B0B0B0B0B01021020200840
:100200000810204010204080020102010804020171
:1002100001020408102040808040201008040201E0
:100220008004020180402010080402010804020139
:1002300001020408102040800102040810204080C0
:1002400000000A0B02090C0D0E0807030401000050
:10025000000000000000000000000000000000009E
:10026000000000000000000000000000121110005B
:10027000000000000000000000000000000000007E
:100280000000000000003D0811241FBECFEFD1E2A6
:10029000DEBFCDBF00E00CBF24E0AAE4B3E001C0A4
:1002A0001D92A931B207E1F713E0A0E0B2E0ECE063
:1002B000F9E200E00BBF02C007900D92AA34B1072B
:1002C000D9F711E0C4E4D1E000E006C021970109AC
:1002D000802FFE010E945712C334D10780E0080727
:1002E000A9F702D70C9484148BCE8150823108F088
:1002F0005AC0E82FF0E08827EF57FE4F8F4F0C943D
:100300005712A101A501930199019D01D301A801F3
:10031000AE01B201B801BC01C001C601CA01D301DE
:10032000CE01D401D801809180008F778093800026
:100330000895809180008F7DF9CF80918000877F24
:10034000F5CF84B58F7784BD089584B58F7DFBCFBD
:100350008091B0008F778093B00008958091B000B5
:100360008F7DF9CF809190008F77809390000895D2
:10037000809190008F7DF9CF80919000877FF5CF9D
:100380008091A0008F778093A00008958091A000B5
:100390008F7DF9CF8091A000877FF5CF80912001DC
:1003A0008F77809320010895809120018F7DF9CF70
:1003B00080912001877FF5CFCF93DF93282F30E006
:1003C000F901E05CFD4F8491F901E650FE4FD491B4
:1003D000F901EC54FE4FC491CC2399F0811185DFD3
:1003E000EC2FF0E0EE0FFF1FE656FE4FA591B49103
:1003F000EC91ED2381E090E009F480E0DF91CF9172
:10040000089580E090E0FACF1F93CF93DF93282FD9
:1004100030E0F901E05CFD4F8491F901E650FE4FB8
:10042000D491F901EC54FE4FC491CC23A1F0162FC6
:1004300081115BDFEC2FF0E0EE0FFF1FE058FE4F65
:10044000A591B4918FB7F894EC91111108C0D09593
:10045000DE23DC938FBFDF91CF911F910895DE2BB8
:10046000F8CFCF93DF9390E0FC01E650FE4F24914C
:100470008C549E4FFC0184918823D1F090E0880F2A
:10048000991FFC01EA59FE4FA591B491FC01E05877
:10049000FE4FC591D49161110EC09FB7F8948C9115
:1004A000E22FE0958E238C932881E223E8839FBF7F
:1004B000DF91CF9108958FB7F894EC91E22BEC93F4
:1004C0008FBFF6CF1F93CF93DF93182FEB0161E01F
:1004D000C8DF209731F460E0812FDF91CF911F9129
:1004E00093CFCF3FD10511F461E0F6CFE12FF0E0DB
:1004F000E05CFD4FE491E150E23108F0B3C0F0E080
:100500008827EA57FD4F8F4F0C9457129802A0028C
:10051000A502AF02B9023203C302CB02D302DD024D
:10052000E702F10200030A03320314031E03280347
:1005300084B5806884BDC7BDDF91CF911F910895B8
:1005400084B5806284BDC8BDF7CF8091800080688B
:1005500080938000D0938900C0938800EDCF809174
:100560008000806280938000D0938B00C0938A00CB
:10057000E3CF80918000886080938000D0938D00CD
:10058000C0938C00D9CF8091B00080688093B00078
:10059000C093B300D1CF8091B00080628093B0004F
:1005A000C093B400C9CF8091900080688093900080
:1005B000D0939900C0939800BFCF80919000806243
:1005C00080939000D0939B00C0939A00B5CF809108
:1005D0009000886080939000D0939D00C0939C0011
:1005E000ABCF8091A00080688093A0008091A00094
:1005F0008F7B8093A000D093A900C093A8009CCFCC
:100600008091A00080628093A000D093AB00C09343
:10061000AA0092CF8091A00088608093A000D09320
:10062000AD00C093AC0088CF80912001806880939A
:100630002001D0932901C09328017ECF8091200111
:10064000806280932001D0932B01C0932A0174CF44
:1006500080912001886080932001D0932D01C09368
:100660002C016ACFC038D1050CF03ECF34CF863391
:1006700008F0865320917B00982F9870277F922B4B
:1006800090937B008770806480937C0080917A00D7
:10069000806480937A0080917A0086FDFCCF8091FF
:1006A00078009091790008953FB7F894809166039F
:1006B00090916703A0916803B091690326B5A89B48
:1006C00005C02F3F19F00196A11DB11D3FBFBA2FE4
:1006D000A92F982F8827BC01CD01620F711D811DA4
:1006E000911D42E0660F771F881F991F4A95D1F729
:1006F00008958F929F92AF92BF92CF92DF92EF9226
:10070000FF924B015C01D0DF6B017C01CDDF6C19E6
:100710007D098E099F09683E734081059105B0F3FC
:1007200021E0821A9108A108B10888EEC80E83E082
:10073000D81EE11CF11C81149104A104B10431F70D
:10074000FF90EF90DF90CF90BF90AF909F908F90F1
:1007500008952FB7F89460916203709163038091BC
:100760006403909165032FBF089580915803909181
:100770005903A0915A03B0915B030196A11DB11DCD
:100780008093580390935903A0935A03B0935B034B
:100790000895FC01248135816217730720F480815C
:1007A0009181009729F410924C038CE493E0089512
:1007B000860F971F0895AF92BF92CF92DF92EF926C
:1007C000FF920F931F93CF93DF936C017B018B01FB
:1007D000040F151FEB015E01AE18BF08C017D1074B
:1007E00059F06991D601ED91FC910190F081E02DD5
:1007F000C6011995892B79F7C501DF91CF911F911A
:100800000F91FF90EF90DF90CF90BF90AF90089541
:10081000FC01538D448D252F30E0842F90E0821B06
:10082000930B541710F0CF96089501970895FC018B
:10083000918D828D981761F0A28DAE0FBF2FB11DE3
:100840005D968C91928D9F5F9F73928F90E008953B
:100850008FEF9FEF08950F931F937BDF60937203D9
:100860007093730380937403909375038AE693E007
:10087000DEDF97FF1CC06DDF0091720310917303E0
:100880002091740330917503601B710B820B930BE5
:1008900000916E0310916F032091700330917103EA
:1008A000601771078207930708F38FEF9FEF1F917F
:1008B0000F910895FC01918D828D981731F0828DF2
:1008C000E80FF11D858D90E008958FEF9FEF08955B
:1008D000FC01918D228D892F90E0805C9F4F821BBF
:1008E00091098F73992708958AE693E0F1DF21E05B
:1008F000892B09F420E0822F0895FC01A48DA80F14
:10090000B92FB11DA35ABF4F2C91848D90E0019651
:100910008F739927848FA689B7892C93A089B18971
:100920008C91837080648C93938D848D981306C012
:100930000288F389E02D80818F7D80830895EF9276
:10094000FF920F931F93CF93DF93EC0181E0888F89
:100950009B8D8C8D98131AC0E889F989808185FF59
:1009600015C09FB7F894EE89FF896083E889F989FB
:1009700080818370806480839FBF81E090E0DF91FD
:10098000CF911F910F91FF90EF900895F62E0B8D50
:1009900010E00F5F1F4F0F731127E02E8C8D8E110B
:1009A0000BC00FB607FCFACFE889F989808185FF73
:1009B000F5CFCE01A2DFF2CFEB8DEC0FFD2FF11DB5
:1009C000E35AFF4FF0829FB7F8940B8FEA89FB89B7
:1009D00080818062D0CFCF93DF93EC01888D882314
:1009E000B1F0AA89BB89E889F9898C9185FD03C09A
:1009F000808186FD0CC00FB607FCF7CF8C9185FF78
:100A0000F2CF808185FFEDCFCE0177DFEACFDF9196
:100A1000CF91089580E090E0892B21F065DF81116E
:100A20000E94000080E090E0892B49F080E090E097
:100A3000892B29F00E94000081110E94000080E0B3
:100A400090E0892B49F080E090E0892B29F00E940A
:100A5000000081110E94000080E090E0892B49F0A5
:100A600080E090E0892B29F00E94000081110C9415
:100A7000000008958F929F92AF92BF92FF920F93C2
:100A80001F93CF93DF93082FF62E142FE901B9019E
:100A9000330F880B990B0E94A80E4B015C012AE9C9
:100AA00039E94CE453E40E94A20E87FD25C02AE9EF
:100AB00039E94CE454E4C501B4010E94B910181698
:100AC00014F4C2E3D3E0812FD2DD61E0C817D90767
:100AD000B4F48F2D99DC812FCADDC817D907DCF358
:100AE00060E08F2DDF91CF911F910F91FF90BF900C
:100AF000AF909F908F9088CCCCECD0E0E4CF802F4B
:100B000083DC812FB4DD8C179D07DCF360E0802F40
:100B1000E9CFFC01CB01009731F480E3808381832E
:100B20008283838308956436710529F480E380838A
:100B300091E39183F5CF9B012A5031092A35310584
:100B400058F420E3208321836AE070E00E9422129F
:100B5000605D6283805DE5CF6A3071051CF790E3CC
:100B6000908391839283F6CF80914B03811108C0CB
:100B700061E088E149DC81E080934A0380934B0384
:100B800080914A038130D9F48091580390915903A0
:100B9000A0915A03B0915B0388379105A105B10577
:100BA00070F0109258031092590310925A03109249
:100BB0005B0360E088E128DC10924A03089580918D
:100BC0004A0381111BC08091580390915903A09151
:100BD0005A03B0915B038C329140A105B10570F0CE
:100BE000109258031092590310925A0310925B030B
:100BF00061E088E109DC81E080934A030895FC010B
:100C000001900020E9F73197AF01481B590BBC0157
:100C10008AE693E0D0CDCF93DF93F1DFEC0188E15A
:100C200092E0EDDF8C0F9D1FDF91CF9108958F92A1
:100C30009F92AF92BF92CF92DF92EF92FF920F936B
:100C40001F93CF93DF93CDB7DEB7A1970FB6F8947C
:100C5000DEBF0FBECDBF6C01990FEE08FF08F7FE97
:100C600044C06DE28AE693E06ADE8C0122273327D6
:100C7000A9012C193D094E095F0919A2CE018196DF
:100C80007C019AE0892E912CA12CB12CCA01B901CA
:100C9000A50194010E943512605DF70162937F0106
:100CA000211531054105510589F790E080E0309725
:100CB00011F0CF01A4DF080F191F88E192E09FDF38
:100CC000800F911FA1960FB6F894DEBF0FBECDBF67
:100CD000DF91CF911F910F91FF90EF90DF90CF9018
:100CE000BF90AF909F908F900895A701960119A291
:100CF0008E010F5D1F4F8AE0C82ED12CE12CF12C04
:100D0000CA01B901A70196010E943512605DF80180
:100D100062938F01211531054105510589F73097FF
:100D200021F0CF016CDF8C01C8CF10E000E0C5CF0F
:100D30008F929F92AF92BF92CF92DF92EF92FF92EB
:100D4000BC01990F880B990B0E94A80E6B017C01C6
:100D50002DEC3CEC4CE45FE30E94070F4B015C017F
:100D60002DEC3CEC4CE45EE3C701B6010E94070F9A
:100D70009B01AC01C501B4010E94BB0F24E333E722
:100D800049E154E40E94201020E030E048EC52E4B5
:100D90000E94070F0E9488106B018BE192E02FDF09
:100DA000C60145DFC601FF90EF90DF90CF90BF9066
:100DB000AF909F908F900895CF93DF93EC01072E13
:100DC000000C880B990BC4D79B01AC0160E070E06C
:100DD00080E090E40E94BD102097A9F020E030E070
:100DE00040E85FE30E94BB0F0E948810C69F9001FD
:100DF000C79F300DD69F300D1124C90164E670E005
:100E00000E942212EB01CE01DF91CF910895CF9382
:100E1000DF93EC0188819981009711F00E940F13F4
:100E2000198218821D821C821B821A82DF91CF9147
:100E300008950F931F93CF93DF93EC0188819981DD
:100E4000009759F02A813B812617370730F081E05F
:100E5000DF91CF911F910F9108958B016F5F7F4FAD
:100E60000E949813009759F0998388831B830A8303
:100E70002C813D81232B59F7FC011082E8CF80E0C3
:100E8000E7CFEF92FF920F931F93CF93DF93EC0185
:100E90008617970771F0FB0100811181011511057B
:100EA00031F0E480F580B701C4DF81110AC0CE01C2
:100EB000AEDFCE01DF91CF911F910F91FF90EF90A8
:100EC0000895FD82EC82B801888199810E947D1489
:100ED000F0CF1F920F920FB60F9211242F933F93D2
:100EE0008F939F93AF93BF9380916203909163031D
:100EF000A0916403B09165033091610323E0230F57
:100F00002D3758F50196A11DB11D209361038093E3
:100F1000620390936303A0936403B093650380918D
:100F2000660390916703A0916803B09169030196ED
:100F3000A11DB11D8093660390936703A09368037E
:100F4000B0936903BF91AF919F918F913F912F9182
:100F50000F900FBE0F901F90189526E8230F029652
:100F6000A11DB11DD2CF1F920F920FB60F92112467
:100F70000BB60F922F933F934F935F936F937F9393
:100F80008F939F93AF93BF93EF93FF938AE693E082
:100F9000B4DCFF91EF91BF91AF919F918F917F91C1
:100FA0006F915F914F913F912F910F900BBE0F90DA
:100FB0000FBE0F901F9018951F920F920FB60F92B1
:100FC00011240BB60F922F938F939F93EF93FF9360
:100FD000E0917A03F0917B038081E0918003F091AE
:100FE000810382FD1DC09081809183038F5F8F7389
:100FF00020918403821741F0E0918303F0E0E659E9
:10100000FC4F958F80938303FF91EF919F918F9178
:101010002F910F900BBE0F900FBE0F901F90189541
:101020008081F2CF1F920F920FB60F9211240BB650
:101030000F922F933F934F935F936F937F938F9371
:101040009F93AF93BF93EF93FF93E0915C03F09175
:101050005D031995FF91EF91BF91AF919F918F9192
:101060007F916F915F914F913F912F910F900BBEA8
:101070000F900FBE0F901F901895EAE6F3E01382D1
:10108000128288EE93E0A0E0B0E084839583A6838B
:10109000B7838AE092E09183808385EC90E0958726
:1010A000848784EC90E09787868780EC90E0918B32
:1010B000808B81EC90E0938B828B82EC90E0958B1F
:1010C000848B86EC90E0978B868B118E128E138E1C
:1010D000148EE7E0F4E089E1868386E1878386E089
:1010E000808781E085870895CF93DF93CDB7DEB702
:1010F00060970FB6F894DEBF0FBECDBF789484B56D
:10110000826084BD84B5816084BD85B5826085BD03
:1011100085B5816085BD80916E00816080936E0091
:101120001092810080918100826080938100809183
:101130008100816080938100809180008160809334
:1011400080008091B10084608093B1008091B000F4
:1011500081608093B00080919100826080939100C3
:1011600080919100816080939100809190008160D6
:10117000809390008091A10082608093A100809173
:10118000A10081608093A1008091A0008160809384
:10119000A000809121018260809321018091210132
:1011A00081608093210180912001816080932001E2
:1011B00080917A00846080937A0080917A008260C6
:1011C00080937A0080917A00816080937A00809188
:1011D0007A00806880937A001092C100E0917A03CF
:1011E000F0917B0382E08083E0917603F0917703B6
:1011F0001082E0917803F09179038FEC8083109254
:101200008203E0917E03F0917F0386E08083E0918A
:101210007C03F0917D03808180618083E0917C0379
:10122000F0917D03808188608083E0917C03F09160
:101230007D03808180688083E0917C03F0917D0351
:1012400080818F7D808360E086E10BD961E087E15A
:1012500008D961E088E105D960E089E102D961E05F
:101260008AE1FFD861E087E0FCD861E088E0F9D846
:1012700060E088E3F6D860E089E3F3D860E086E3D5
:10128000F0D861E08CE1EDD861E08BE1EAD861E073
:101290008CE1E7D861E08DE1E4D860E087E3E1D854
:1012A00061E08FE1DED861E089E0DBD88DE292E099
:1012B000B2DC4FDA60935003709351038093520372
:1012C000909353031AE06624639494E6792E28EEF3
:1012D000A22E23E0B22E01E032E1C32E3AE7D32E54
:1012E0008AE693E0F5DA181619060CF07EC280E162
:1012F000982E8AE693E0ECDA181619060CF075C2FF
:101300001C861B861E861D86188A1F8670E060E07C
:10131000CE010B968EDD811124C0CE010B9677DDB8
:101320009ADA97FD27C08A30910521F189831A82C4
:10133000EF84F8882FEFE21AF20AB701CE010B967C
:1013400078DD882369F32B853C858F859889BE01DC
:101350006F5F7F4F820F931F0E947D14F88AEF8684
:10136000DFCF188A1F866AE172E08B859C850E9418
:101370007D14D6CF70E060E0CE010B960ADAFC0156
:1013800080818A3371F462E070E0CE010B9601DA5D
:10139000FC018081823309F4A6C044F4813309F44E
:1013A0006CC08B859C850E940F13A3CF833309F4F7
:1013B00047C18433B1F71A8219821C821B821E82B4
:1013C0001D82BE01655F7F4FCE0101965ADD64E04C
:1013D00070E0CE010196DDD9FC018081813309F4F2
:1013E000BDC1823309F060C068E070E0CE010196B3
:1013F000D0D9FC01F08067E070E0CE010196C9D938
:10140000FC01E08066E070E0CE010196C2D9FC01EB
:10141000808065E070E0CE010196BBD9FC0120819F
:10142000022E000C330B205331092A9DA0012B9D65
:10143000500D3A9D500D1124282D880C330B20534C
:101440003109729EC001739E900D1124480F591FDF
:101450002E2DEE0C330B20533109129FC001139F28
:10146000900D1124480F591F8F2DFF0C990BC09719
:10147000840F951F8093550317C01A8219821C820E
:101480001B821E821D82BE01655F7F4FCE010196C9
:10149000F8DC64E070E0CE0101967BD9FC0180812C
:1014A000813339F0823391F089819A810E940F1340
:1014B00078CFFF24F39480914D038111F12C6F2D8F
:1014C00087E10E940402F0924D03EECF00935F0388
:1014D00060E088E10E9404029092810010926F0007
:1014E00010925E03E1CF1A8219821C821B821E8237
:1014F0001D82BE01655F7F4FCE010196C2DC64E0B4
:1015000070E0CE01019645D9FC018081813309F458
:1015100054C0823349F668E070E0CE01019639D9B3
:10152000FC01F08067E070E0CE01019632D9FC0149
:10153000E08066E070E0CE0101962BD9FC012081AD
:10154000022E000C330B20533109729EC001739E92
:10155000900D11242E2DEE0C330B20533109129FC8
:10156000A001139F500D1124480F591F8F2DFF0C00
:10157000990BC097840F951F80934F0385E492E0E9
:101580003EDB80914F03082E000C990B50DB8091BD
:101590004F0368E070E0082E000C990B0DDC682FFB
:1015A000880F770B880B990BD3D323E333E343E204
:1015B00050E42DD4ADD587E027C068E070E0CE01BF
:1015C0000196E7D8FC01E08067E070E0CE0101966B
:1015D000E0D8FC018081082E000C990BC097189F61
:1015E0009001199F300D11240E2C000CFF08F0E320
:1015F000EF1AF108E20EF31E23E6E21208C0109281
:10160000570370E060E088E00E9462024DCF6E2DCB
:101610000E2C000C770B880B990B9AD323E333E342
:1016200043EA50E4F4D374D52091570388E02111A4
:10163000EBCF0E94620200935703E092560334CF2F
:101640001A8219821C821B821E821D82BE01655F66
:101650007F4FCE01019615DC64E070E0CE0101966B
:1016600098D8FC018081813309F43DC0823309F0B0
:101670001BCF68E070E0CE0101968BD8FC01F080B2
:1016800067E070E0CE01019684D8FC01E08066E05E
:1016900070E0CE0101967DD8FC012081022E000C65
:1016A000330B20533109729EC001739E900D11249B
:1016B0002E2DEE0C330B20533109129FA001139FE6
:1016C000500D1124840F951F2F2DFF0C330B205329
:1016D00031096AE070E0820F931F6EDB9C0149E3E1
:1016E0006EE18DE139C068E070E0CE01019651D81D
:1016F000FC01F08067E070E0CE0101964AD8FC0161
:10170000E08066E070E0CE01019643D8FC012081C4
:10171000022E000C330B20533109729EC001739EC0
:10172000900D11242E2DEE0C330B20533109129FF6
:10173000A001139F500D1124840F951F2F2DFF0C16
:10174000330B205331096AE070E0820F931F34DBC2
:101750009C0148E36CE18BE18DD9A6CE68E070E096
:10176000CE01019616D8FC01F08067E070E0CE0152
:1017700001960FD8FC01E08066E070E0CE01019692
:1017800008D8FC012081022E000C330B20533109B4
:10179000729EC001739E900D11242E2DEE0C330B02
:1017A00020533109129FA001139F500D1124480F9F
:1017B000591F8F2DFF0C990BC097840F951F809395
:1017C0004E0368E070E0082E000C990BF5DA682FE4
:1017D000880F770B880B990BBBD223E333E343E2EB
:1017E00050E415D395D489E00FCF86E10E94DC0147
:1017F000892B31F480916003811102C00093600352
:1018000086E10E94DC0120915E03019721F4809122
:101810005F03882351F0211181C086E10E94DC0121
:10182000892BE9F510925F033AC0211110C080E1C5
:101830008093810010928000D0928700C092860031
:1018400084E18093810060926F0000935E03809139
:10185000580390915903A0915A03B0915B0380E122
:101860008093810010926F0080938100109280001D
:10187000D0928700C092860084E18093810010920C
:1018800058031092590310925A0310925B0384EB91
:1018900095E090935D0380935C0360926F0080916C
:1018A00057038111E5C00E94A903209110043091D3
:1018B00011044091120450911304621773078407B6
:1018C000950740F410921004109211041092120423
:1018D0001092130420911404211128C020911004A7
:1018E000309111044091120450911304621B730B48
:1018F000840B950B603D774081059105B8F480918C
:101900000E048B3009F4A1C020F08551823008F418
:10191000C5C160E070E080EC9FE79DC010926F0051
:1019200080E18093810010925E0377CF10921404BF
:101930000E94A90360931004709311048093120411
:101940009093130410920B0410920A04109209044D
:10195000109208041092070461E080910D040E9427
:1019600004026AEF70E080E090E00E94790361E099
:1019700080910D040E94310260E080910D040E946C
:10198000040264E170E080E090E00E947903F89442
:1019900061E080910D040E9404028BE990E00197C0
:1019A000F1F760E080910D040E943102512C81E03A
:1019B000912C812CE82EF12C80910D040E94DC01E9
:1019C0008E159F0521F483942FEF8212F5CF80911D
:1019D0000D040E94DC014FEF8416D1F053E059153D
:1019E00098F490FC11C0E52DE695E695E695F0E0BB
:1019F000E95FFB4F9081990F908320910F04281588
:101A000010F4916090835394939495E59912D1CFFB
:101A10007894E7E2E51508F07CCF40910B04209123
:101A2000070480910804280F3327331F809109048D
:101A3000280F311D80910A04820F932F911D992741
:101A40004817190609F065CF5ACF6091090470E074
:101A500090E080E07BD120E030E0A9018AD3181625
:101A60000CF03DC161E08AE10E940402009356033C
:101A700086E30E94370387E30E943703E090550313
:101A80000E2C000CFF084701F1E18F0E911CBC01E8
:101A9000990F880B990B5CD12DE032E348E45DE3AC
:101AA000B6D136D3681579050CF020C161E08FE11D
:101AB0000E940402009354030E94A903AB01BC01DD
:101AC0008091500390915103A0915203B091530320
:101AD00088519C4FAF4FBF4F481759076A077B0784
:101AE00008F4D9C00E94A903609350037093510376
:101AF00080935203909353038AE0EFE3F3E0DE0117
:101B0000119601900D928A95E1F785E0E1E7F2E008
:101B1000DE011B9601900D928A95E1F789E592E02E
:101B20007AD880916003882309F4FFC08CE692E0A4
:101B300072D880E892E06FD86091560362300CF45E
:101B4000F7C0062E000C770BCE010B960E9489057C
:101B50008B858E838C858F838D8588878E858987FD
:101B6000CE01019658D885EA92E055D888E30E94C4
:101B70003703DED87C01BC01CE010B960E9489059B
:101B80008BEB92E03CD8C70152D863EC72E0CE01F7
:101B90000196B3D68B858E838C858F838D858887C0
:101BA0008E858987CE01019636D889E30E94370356
:101BB000BFD8BC01CE010B960E9489056DEC72E086
:101BC000CE0101969AD68B858E838C858F838D85E9
:101BD00088878E858987CE0101961DD887ED92E092
:101BE0001AD880915403882309F4A9C086EF92E0A3
:101BF00012D886E30E94370370E060E0CE010B96B6
:101C00000E9489056AE073E0CE01019676D68B8545
:101C10008E838C858F838D8588878E858987CE017D
:101C200001960E940B0684E193E00E940B066091EE
:101C30004F03062E000C770BCE010B960E948905F0
:101C40006BE273E0CE01019658D68B858E838C852E
:101C50008F838D8588878E858987CE0101960E9426
:101C60000B0660914E03062E000C770BCE010B96EF
:101C70000E94890565E373E0CE0101963ED68B850F
:101C80008E838C858F838D8588878E858987CE010D
:101C900001960E940B060E940A0522CBF0900904CF
:101CA0006F2D6F7770E090E080E052D020E030E060
:101CB00040E853E4ACD01B012C0160910A0470E0B1
:101CC00090E080E045D0A201910156D120E030E0C3
:101CD00040E251E4B5D1F7FEBECE9058BCCE60E0F4
:101CE0008AE10E94040210925603C2CE87E30E944A
:101CF000370321E130E0A9014E195F097A01BC01E7
:101D0000990F880B990B24D02DE032E348E45DE372
:101D10007ED0FED1E616F7060CF0CECE60E08FE165
:101D20000E94040210925403C7CE86E792E000CFCF
:101D300081E992E0611116CF8BE992E013CF80E048
:101D400093E056CF40D008F481E00895E89409C0AC
:101D500097FB3EF490958095709561957F4F8F4FDE
:101D60009F4F9923A9F0F92F96E9BB279395F695F4
:101D7000879577956795B795F111F8CFFAF4BB0F72
:101D800011F460FF1BC06F5F7F4F8F4F9F4F16C0D6
:101D9000882311F096E911C0772321F09EE8872F60
:101DA000762F05C0662371F096E8862F70E060E01C
:101DB0002AF09A95660F771F881FDAF7880F969595
:101DC000879597F90895990F0008550FAA0BE0E839
:101DD000FEEF16161706E807F907C0F012161306ED
:101DE000E407F50798F0621B730B840B950B39F42D
:101DF0000A2661F0232B242B252B21F408950A2693
:101E000009F4A140A6958FEF811D811D08950BD087
:101E100078C069D028F06ED018F0952309F05AC028
:101E20005FC01124A2C07ED0A0F3959FD1F3950F7F
:101E300050E0551F629FF001729FBB27F00DB11D4E
:101E4000639FAA27F00DB11DAA1F649F6627B00DDE
:101E5000A11D661F829F2227B00DA11D621F739FC7
:101E6000B00DA11D621F839FA00D611D221F749FD5
:101E70003327A00D611D231F849F600D211D822F1C
:101E8000762F6A2F11249F5750408AF0E1F0882363
:101E90004AF0EE0FFF1FBB1F661F771F881F915070
:101EA0005040A9F79E3F510570F014C05EC05F3FDF
:101EB000ECF3983EDCF3869577956795B795F795A3
:101EC000E7959F5FC1F7FE2B880F911D969587952B
:101ED00097F9089597F99F6780E870E060E00895AA
:101EE0009FEF80EC089500240A9416161706180632
:101EF0000906089500240A9412161306140605060E
:101F00000895092E0394000C11F4882352F0BB0F9E
:101F100040F4BF2B11F460FF04C06F5F7F4F8F4F01
:101F20009F4F089557FD9058440F551F59F05F3F3C
:101F300071F04795880F97FB991F61F09F3F79F0EB
:101F400087950895121613061406551FF2CF46956D
:101F5000F1DF08C0161617061806991FF1CF8695EF
:101F60007105610508940895E894BB2766277727D3
:101F7000CB0197F908955058BB27AA270ED0C1CF9F
:101F8000B2DF30F0B7DF20F031F49F3F11F41EF4E0
:101F9000A7CF0EF4E095E7FB9DCFE92FC3DF80F3D9
:101FA000BA17620773078407950718F071F49EF556
:101FB000DBCF0EF4E0950B2EBA2FA02D0B01B9014B
:101FC00090010C01CA01A0011124FF27591B99F0AF
:101FD000593F50F4503E68F11A16F040A22F232FBB
:101FE000342F4427585FF3CF469537952795A7950B
:101FF000F0405395C9F77EF41F16BA0B620B730BB2
:10200000840BBAF09150A1F0FF0FBB1F661F771F22
:10201000881FC2F70EC0BA0F621F731F841F48F4D7
:10202000879577956795B795F7959E3F08F0B3CF5D
:102030009395880F08F09927EE0F97958795089547
:102040000CD05FCF57DF40F04EDF30F021F45F3F20
:1020500019F040CF511189CF43CF64DF98F3992312
:10206000C9F35523B1F3951B550BBB27AA2762175C
:102070007307840738F09F5F5F4F220F331F441FA1
:10208000AA1FA9F333D00E2E3AF0E0E830D09150D9
:102090005040E695001CCAF729D0FE2F27D0660FC6
:1020A000771F881FBB1F261737074807AB07B0E805
:1020B00009F0BB0B802DBF01FF2793585F4F2AF01B
:1020C0009E3F510568F006CF50CF5F3FECF3983E3E
:1020D000DCF3869577956795B795F7959F5FC9F778
:1020E000880F911D9695879597F90895E1E0660F01
:1020F000771F881FBB1F621773078407BA0720F07A
:10210000621B730B840BBA0BEE1F88F7E0950895E2
:1021100004D06894B11129CF08950CDF88F09F573F
:1021200090F0B92F9927B751A0F0D1F0660F771F23
:10213000881F991F1AF0BA95C9F712C0B13081F003
:1021400013DFB1E0089510CF672F782F8827B85F8D
:1021500039F0B93FCCF3869577956795B395D9F764
:102160003EF490958095709561957F4F8F4F9F4F6E
:10217000089529DE08F48FEF0895FA01EE0FFF1F8E
:1021800030962105310599F16115710561F48038AA
:10219000BFE39B0749F168949038810561F080386E
:1021A000BFEF9B0741F0992342F5FF3FE105310561
:1021B000210511F1E8940894E795D901AA2329F49F
:1021C000AB2FBE2FF85FD0F310C0FF5F70F4A69561
:1021D000E0F7F73950F019F0FF3A38F49F779F9302
:1021E0000CD00F9007FC905808953EF079CE60E037
:1021F00070E080E89FE308954FE79F775F934F93E8
:102200003F932F939ED02F913F914F915F91FFDD90
:1022100005C019F40EF05ECEA7CE62CE8BDEC8F3F9
:102220009638C0F707F80F92E8942BE33AEA48EBA8
:102230005FE7FBDD0F920F920F924DB75EB70F92E3
:10224000C0D0E4EEF0E016D04F915F91EF91FF9196
:10225000E595EE1FFF1F49F0FE57E0684427EE0F9B
:10226000441FFA95E1F74195550B32D00F9007FEC8
:1022700026C00895DF93CF931F930F93FF92EF92A1
:10228000DF927B018C01689405C0DA2EEF01CBDD73
:10229000FE01E894A5912591359145915591AEF3B4
:1022A000EF017BDEFE019701A801DA9479F7DF9058
:1022B000EF90FF900F911F91CF91DF9108959B01B7
:1022C000AC0160E070E080E89FE3BACE03CEACC022
:1022D00031DEE8F39923D9F3940F511DBBF39150EC
:1022E000504094F059F0882332F0660F771F881F12
:1022F00091505040C1F79E3F510544F7880F911D02
:102300009695879597F908955F3FACF0983E9CF0BD
:10231000BB27869577956795B79508F4B160939537
:10232000C1F7BB0F58F711F460FFE8CF6F5F7F4F25
:102330008F4F9F4FE3CF19CE0EF076C0D1CD68946A
:10234000C9CDF8DDC8F39923D1F3C6F3DF93CF935A
:102350001F930F93FF92C92FDD2788232AF021971F
:10236000660F771F881FDAF720E030E040E85FEB68
:102370009FE3883920F0803E30F021968F77FCDD96
:10238000ECE0F1E003C0F8DDE9E3F1E073DF8B019D
:10239000BE01EC01FB2E6F5771097595771F880BF5
:1023A000990BD6DC28E132E741E35FE33CDDAF2D5A
:1023B0009801AE01FF900F911F91CF91DF91EDDD5C
:1023C000A0CDFA01DC01AA0FBB1F9B01AC01BF57D6
:1023D00028F422273327442750781FC0B75188F4A8
:1023E000AB2F0024469537952795011CA395D2F372
:1023F000002069F0220F331F441FB395DAF30DD08C
:10240000BACD61307105A0E88A07B94630F49B0166
:10241000AC016627772788279078309621F02083B3
:1024200031834283538308959F3F31F0915020F4CC
:10243000879577956795B795880F911D96958795A0
:1024400097F9089597FB072E16F4009406D077FDB0
:1024500008D035D007FC05D03EF4909581959F4F6C
:102460000895709561957F4F0895A1E21A2EAA1BD9
:10247000BB1BFD010DC0AA1FBB1FEE1FFF1FA21734
:10248000B307E407F50720F0A21BB30BE40BF50B31
:10249000661F771F881F991F1A9469F760957095BA
:1024A000809590959B01AC01BD01CF010895EE0F81
:1024B000FF1F881F8BBF0790F691E02D1994AA1B70
:1024C000BB1B51E107C0AA1FBB1FA617B70710F01F
:1024D000A61BB70B881F991F5A95A9F78095909551
:1024E000BC01CD0108950F931F93CF93DF938230EA
:1024F000910510F482E090E0E0911704F091180447
:1025000030E020E0B0E0A0E0309799F421153105EB
:1025100009F44AC0281B390B24303105D8F58A81CB
:102520009B816115710589F1FB0193838283FE0113
:1025300011C0408151810281138148175907E0F091
:102540004817590799F4109761F012960C93129757
:1025500013961C933296CF01DF91CF911F910F916B
:1025600008950093170410931804F4CF2115310532
:1025700051F04217530738F0A901DB019A01BD0160
:10258000DF01F801C1CFEF01F9CF909318048093D8
:102590001704CDCFFE01E20FF31F819391932250D8
:1025A000310939832883D7CF20911504309116043F
:1025B000232B41F420910202309103023093160440
:1025C000209315042091000230910102211531055C
:1025D00041F42DB73EB74091040250910502241BEF
:1025E000350BE0911504F0911604E217F307A0F4FF
:1025F0002E1B3F0B2817390778F0AC014E5F5F4F59
:102600002417350748F04E0F5F1F50931604409370
:102610001504819391939FCFF0E0E0E09CCFCF939E
:10262000DF930097E9F0FC01329713821282A091A8
:102630001704B0911804ED0130E020E01097A1F4E8
:1026400020813181820F931F20911504309116044F
:102650002817390709F061C0F0931604E0931504B8
:10266000DF91CF910895EA01CE17DF07E8F54A819F
:102670005B819E0141155105B1F7E901FB83EA83B6
:1026800049915991C40FD51FEC17FD0761F4808162
:1026900091810296840F951FE90199838883828135
:1026A00093819B838A83F0E0E0E012968D919C9168
:1026B00013970097B9F52D913C911197CD01029692
:1026C000820F931F209115043091160428173907A3
:1026D00039F6309751F51092180410921704B09300
:1026E0001604A0931504BCCFD383C28340815181CB
:1026F000840F951FC817D90761F44E5F5F4F88811B
:102700009981480F591F518340838A819B8193830C
:1027100082832115310509F0B0CFF0931804E093BE
:1027200017049ECFFD01DC01C0CF13821282D7CFE8
:102730004F925F926F927F928F929F92AF92BF92D1
:10274000CF92DF92EF92FF920F931F93CF93DF937D
:102750008C01009791F4CB01DF91CF911F910F91E4
:10276000FF90EF90DF90CF90BF90AF909F908F90B1
:102770007F906F905F904F90B6CEFC01E60FF71FF1
:102780009C0122503109E217F30708F4AAC0D901CD
:10279000CD91DC911197C617D70718F1C530D10537
:1027A00070F0CE0104978617970748F0C61BD70B29
:1027B0002297C193D1936D937C93CF0130DFC801F1
:1027C000DF91CF911F910F91FF90EF90DF90CF900D
:1027D000BF90AF909F908F907F906F905F904F9041
:1027E00008955B01AC1ABD0A4C018C0E9D1EA09190
:1027F0001704B0911804512C412CF12CE12C1097A6
:1028000031F580911504909116048815990509F009
:102810005CC04616570608F058C08091000290919F
:102820000102009741F48DB79EB740910402509188
:102830000502841B950BE817F90708F052C0F093C6
:102840001604E0931504F90171836083B8CF8D916C
:102850009C91119712966C90129713967C901397F7
:10286000A815B90559F56C0142E0C40ED11CCA1473
:10287000DB0420F1AC014A195B09DA0112961597C5
:1028800080F06282738251834083D9016D937C937F
:10289000E114F10471F0D7011396FC93EE931297B3
:1028A0008ECF22968C0F9D1FF90191838083F301B7
:1028B000EFCFF0931804E093170481CF4816590620
:1028C00008F42C017D01D3019ACFCB010CDE7C01F1
:1028D000009739F0AE01B80107D0C801A0DE87012A
:1028E0006ECF10E000E06BCFFB01DC0102C0019075
:1028F0000D9241505040D8F70895FB01DC01019042
:0C2900000D920020E1F70895F894FFCF3D
:10290C00000019048000000000009F04DB03080491
:10291C00EB04680417045A040D0A0050524120506D
:10292C00524F43454E544147454D3A200054657330
:10293C0074616E646F206120706F727461207365B6
:10294C007269616C004C616D70203120646F206184
:10295C00726475696E6F203D00506F727461202D2A
:10296C002D2D2D2D2D2D2D2D2D2D2D003A313130A0
:10297C003346464646003A31313033303030300041
:10298C00417263202D2D2D2D2D2D2D2D2D2D2D2DE9
:10299C00003A3132303346464646003A3132303313
:1029AC003030303000436F7274696E6173202D2D9E
:1029BC002D2D2D2D2D2D2D2D2D2D007661723120AF
:1029CC003D20003A3133303330303030003A31333F
:1029DC0030343030303000417175656365646F722E
:1029EC0020652076656E746F202D2D2D2D2D2D2DAF
:1029FC002D2D2D2D2D003A313430344646464600CF
:102A0C003A3134303430303030003A3133303530C4
:102A1C00303030004C616D703120653220202D2D0E
:102A2C002D2D2D2D2D2D2D2D2D2D003A31323034D7
:102A3C0030303030003A3134303330303030003ACE
:0A2A4C0031333033464646460000A1
:00000001FF
